:020000040800F2
:10000000008001200D1700088915000891150008CF
:1000100099150008A1150008A915000800000000A6
:10002000000000000000000000000000C15B0008AC
:10003000B115000800000000B15E0008195F00085B
:100040005D1700085D1700085D1700085D170008C0
:100050005D1700085D1700085D1700085D170008B0
:100060005D1700085D1700085D1700085D170008A0
:100070005D1700085D1700085D1700085D17000890
:100080005D1700085D1700085D17000800000000FC
:100090000000000000000000000000005D170008E4
:1000A0005D170008C11500085D1700085D170008FE
:1000B0005D1700085D1700085D1700085D17000850
:1000C0005D1700085D1700085D1700085D17000840
:1000D0005D1700085D1700085D17000800000000AC
:1000E0005D1700085D1700085D170008000000009C
:1000F0000000000000000000000000005D17000884
:10010000000000005D1700085D1700085D1700087B
:1001100000000000000000000000000000000000DF
:100120005D1700085D1700085D1700085D170008DF
:100130005D17000800000000000000000000000043
:100140000000000000000000000000005D17000833
:100150005D1700085D1700085D1700085D170008AF
:100160005D1700085D170008000000000000000097
:10017000000000000000000000000000000000007F
:10018000000000005D1700080000000000000000F3
:040190005D170008EF
:1001A00010B5054C237833B9044B13B10448AFF3B1
:1001B00000800123237010BDDC010020000000003E
:1001C000BC8E000808B5034B1BB103490348AFF3CD
:1001D000008008BD00000000E0010020BC8E000887
:1001E00001F0FF01102A2BDB10F0070F08D010F8E8
:1001F000013B013A8B422DD010F0070F42B3F6D1EC
:10020000F0B441EA012141EA014122F007047FF004
:1002100000070023F0E80256083C85EA010586EA5B
:10022000010685FA47F5A3FA87F586FA47F6A5FA97
:1002300087F68EB9EED1F0BC01F0FF0102F00702A3
:1002400032B110F8013B013A83EA010313B1F8D14E
:100250000020704701387047002D06BF354603382F
:10026000073815F0010F07D1013015F4807F02BF68
:10027000013015F4C03F0130F0BC0138704700BFB9
:10028000034613F8012B002AFBD1181A01387047D6
:1002900081F0004102E000BF83F0004330B54FEA37
:1002A00041044FEA430594EA050F08BF90EA020FA4
:1002B0001FBF54EA000C55EA020C7FEA645C7FEA37
:1002C000655C00F0E2804FEA5454D4EB5555B8BF5A
:1002D0006D420CDD2C4480EA020281EA030382EACB
:1002E000000083EA010180EA020281EA0303362D5D
:1002F00088BF30BD11F0004F4FEA01314FF4801C30
:100300004CEA113102D0404261EB410113F0004F41
:100310004FEA03334CEA133302D0524263EB4303F8
:1003200094EA050F00F0A780A4F10104D5F1200E96
:100330000DDB02FA0EFC22FA05F2801841F10001F1
:1003400003FA0EF2801843FA05F359410EE0A5F1C5
:1003500020050EF1200E012A03FA0EFC28BF4CF0F6
:10036000020C43FA05F3C01851EBE37101F00045AC
:1003700007D54FF0000EDCF1000C7EEB00006EEBB9
:100380000101B1F5801F1BD3B1F5001F0CD3490843
:100390005FEA30004FEA3C0C04F101044FEA44529A
:1003A00012F5800F80F09A80BCF1004F08BF5FEA21
:1003B000500C50F1000041EB045141EA050130BD01
:1003C0005FEA4C0C404141EB0101013C28BFB1F513
:1003D000801FE9D291F0000F04BF01460020B1FA5E
:1003E00081F308BF2033A3F10B03B3F120020CDA31
:1003F0000C3208DD02F1140CC2F10C0201FA0CF00F
:1004000021FA02F10CE002F11402D8BFC2F1200C73
:1004100001FA02F120FA0CFCDCBF41EA0C01904029
:10042000E41AA2BF01EB0451294330BD6FEA040472
:100430001F3C1CDA0C340EDC04F11404C4F120025D
:1004400020FA04F001FA02F340EA030021FA04F36F
:1004500045EA030130BDC4F10C04C4F1200220FAC6
:1004600002F001FA04F340EA0300294630BD21FA04
:1004700004F0294630BD94F0000F83F4801306BFCA
:1004800081F480110134013D4EE77FEA645C18BFBE
:100490007FEA655C29D094EA050F08BF90EA020F55
:1004A00005D054EA000C04BF1946104630BD91EA4D
:1004B000030F1EBF0021002030BD5FEA545C05D150
:1004C0004000494128BF41F0004130BD14F580048F
:1004D0003CBF01F5801130BD01F0004545F0FE4103
:1004E00041F470014FF0000030BD7FEA645C1ABF38
:1004F000194610467FEA655C1CBF0B46024650EA6F
:10050000013406BF52EA033591EA030F41F400219A
:1005100030BD00BF90F0000F04BF0021704730B520
:100520004FF4806404F132044FF000054FF00001F5
:1005300050E700BF90F0000F04BF0021704730B5B6
:100540004FF4806404F1320410F0004548BF40428B
:100550004FF000013EE700BF42004FEAE2014FEAE0
:1005600031014FEA02701FBF12F07F4393F07F4FBB
:1005700081F06051704732F07F4208BF704793F0BE
:100580007F4F04BF41F40021704730B54FF46074D1
:1005900001F0004521F000411CE700BF50EA0102D4
:1005A00008BF704730B54FF000050AE050EA01027D
:1005B00008BF704730B511F0004502D5404261EBED
:1005C00041014FF4806404F132045FEA915C3FF42E
:1005D000D8AE4FF003025FEADC0C18BF03325FEACB
:1005E000DC0C18BF033202EBDC02C2F1200300FA7C
:1005F00003FC20FA02F001FA03FE40EA0E0021FAA1
:1006000002F11444BDE600BF70B54FF0FF0C4CF48E
:10061000E06C1CEA11541DBF1CEA135594EA0C0F40
:1006200095EA0C0F00F0DEF82C4481EA030621EA7B
:100630004C5123EA4C5350EA013518BF52EA0335B6
:1006400041F4801143F4801338D0A0FB02CE4FF068
:100650000005E1FB02E506F00042E0FB03E54FF098
:100660000006E1FB03569CF0000F18BF4EF0010E90
:10067000A4F1FF04B6F5007F64F5407404D25FEA8C
:100680004E0E6D4146EB060642EAC62141EA55513F
:100690004FEAC52040EA5E504FEACE2EB4F1FD0C81
:1006A00088BFBCF5E06F1ED8BEF1004F08BF5FEAFF
:1006B000500E50F1000041EB045170BD06F00046B1
:1006C00046EA010140EA020081EA0301B4EB5C045E
:1006D000C2BFD4EB0C0541EA045170BD41F4801156
:1006E0004FF0000E013C00F3AB8014F1360FDEBF7B
:1006F000002001F0004170BDC4F10004203C35DA57
:100700000C341BDC04F11404C4F1200500FA05F3D9
:1007100020FA04F001FA05F240EA020001F000427A
:1007200021F0004110EBD37021FA04F642EB0601F0
:100730005EEA430E08BF20EAD37070BDC4F10C041A
:10074000C4F1200500FA04F320FA05F001FA04F2DE
:1007500040EA020001F0004110EBD37041F10001CA
:100760005EEA430E08BF20EAD37070BDC4F12005D5
:1007700000FA05F24EEA020E20FA04F301FA05F23D
:1007800043EA020321FA04F001F0004121FA04F2E5
:1007900020EA020000EBD3705EEA430E08BF20EAB5
:1007A000D37070BD94F0000F0FD101F000464000EF
:1007B00041EB010111F4801F08BF013CF7D041EA71
:1007C000060195F0000F18BF704703F00046520075
:1007D00043EB030313F4801F08BF013DF7D043EA46
:1007E0000603704794EA0C0F0CEA135518BF95EAFC
:1007F0000C0F0CD050EA410618BF52EA4306D1D183
:1008000081EA030101F000414FF0000070BD50EAA1
:10081000410606BF1046194652EA430619D094EA2B
:100820000C0F02D150EA013613D195EA0C0F05D115
:1008300052EA03361CBF104619460AD181EA030169
:1008400001F0004141F0FE4141F470014FF0000021
:1008500070BD41F0FE4141F4780170BD70B54FF0BC
:10086000FF0C4CF4E06C1CEA11541DBF1CEA13553C
:1008700094EA0C0F95EA0C0F00F0A7F8A4EB05041E
:1008800081EA030E52EA03354FEA013100F0888015
:100890004FEA03334FF0805545EA131343EA1263DE
:1008A0004FEA022245EA111545EA10654FEA002693
:1008B0000EF000419D4208BF964244F1FD0404F54C
:1008C000407402D25B084FEA3202B61A65EB0305A8
:1008D0005B084FEA32024FF480104FF4002CB6EB65
:1008E000020E75EB030E22BFB61A754640EA0C00E5
:1008F0005B084FEA3202B6EB020E75EB030E22BF25
:10090000B61A754640EA5C005B084FEA3202B6EB65
:10091000020E75EB030E22BFB61A754640EA9C0024
:100920005B084FEA3202B6EB020E75EB030E22BFF4
:10093000B61A754640EADC0055EA060E18D04FEAB2
:10094000051545EA16754FEA06164FEAC30343EA52
:1009500052734FEAC2025FEA1C1CC0D111F4801F1F
:100960000BD141EA00014FF000004FF0004CB6E718
:1009700011F4801F04BF01430020B4F1FD0C88BFB7
:10098000BCF5E06F3FF6AFAEB5EB030C04BFB6EBC2
:10099000020C5FEA500C50F1000041EB045170BDB5
:1009A0000EF0004E4EEA113114EB5C04C2BFD4EBE2
:1009B0000C0541EA045170BD41F480114FF0000E66
:1009C000013C90E645EA060E8DE60CEA135594EAE2
:1009D0000C0F08BF95EA0C0F3FF43BAF94EA0C0FE5
:1009E0000AD150EA01347FF434AF95EA0C0F7FF45A
:1009F00025AF104619462CE795EA0C0F06D152EAAE
:100A000003353FF4FDAE1046194622E750EA410691
:100A100018BF52EA43067FF4C5AE50EA41047FF4A2
:100A20000DAF52EA43057FF4EBAE12E74FF0FF3C07
:100A300006E000BF4FF0010C02E000BF4FF0010CD8
:100A40004DF804CD4FEA410C7FEA6C5C4FEA430C51
:100A500018BF7FEA6C5C1BD001B050EA410C0CBFA0
:100A600052EA430C91EA030F02BF90EA020F002002
:100A7000704710F1000F91EA030F58BF994208BF69
:100A800090422CBFD8176FEAE37040F00100704726
:100A90004FEA410C7FEA6C5C02D150EA013C07D17D
:100AA0004FEA430C7FEA6C5CD6D152EA033CD3D0C8
:100AB0005DF8040B704700BF8446104662468C46C2
:100AC0001946634600E000BF01B5FFF7B7FF0028F5
:100AD00048BF10F1000F01BD4DF808EDFFF7F4FF1E
:100AE0000CBF012000205DF808FB00BF4DF808EDA9
:100AF000FFF7EAFF34BF012000205DF808FB00BFCC
:100B00004DF808EDFFF7E0FF94BF012000205DF8ED
:100B100008FB00BF4DF808EDFFF7CEFF94BF0120A2
:100B200000205DF808FB00BF4DF808EDFFF7C4FF9B
:100B300034BF012000205DF808FB00BF4FEA410CE4
:100B40007FEA6C5C02D150EA013C0AD14FEA430CC7
:100B50007FEA6C5C02D152EA033C02D14FF0000004
:100B600070474FF0010070474FEA410212F5001242
:100B700015D211D56FF47873B3EB625212D94FEAE4
:100B8000C12343F0004343EA505311F0004F23FACE
:100B900002F018BF404270474FF00000704750EA23
:100BA000013005D111F0004008BF6FF000407047E0
:100BB0004FF00000704700BF53B94AB9002908BF81
:100BC00000281CBF4FF0FF314FF0FF3000F06AB932
:100BD000ADF1080C6DE904CE00F006F8DDF804E094
:100BE000DDE9022304B070472DE9F047089D0C466B
:100BF000002B4ED194468C458646B2FA82F262D9D9
:100C00004AB1C2F12003914020FA03F30CFA02FC2E
:100C1000194300FA02FE4FEA1C471FFA8CF6B1FB9B
:100C2000F7F44FEA1E4307FB141143EA014304FBA8
:100C300006F199420AD91CEB030304F1FF3080F05E
:100C40001281994240F20F81023C6344591A1FFA03
:100C50008EF3B1FBF7F007FB101143EA014300FBF1
:100C600006F69E420AD91CEB030300F1FF3180F027
:100C7000FC809E4240F2F980634402389B1B40EAAC
:100C8000044000211DB1D3400022C5E90032BDE877
:100C9000F0878B4205D90DB1C5E900010021084656
:100CA000F5E7B3FA83F1002946D1A34202D390427B
:100CB000C0F0F080861A64EB03030120002DE6D01B
:100CC000C5E90063E3E7002A40F09080A1EB0C0443
:100CD0004FEA1C481FFA8CF70121B4FBF8F64FEAE3
:100CE0001E4308FB164443EA044307FB06F0984200
:100CF00008D91CEB030306F1FF3402D2984200F23C
:100D0000CD8026461C1A1FFA8EF3B4FBF8F008FBC0
:100D1000104443EA044300FB07F79F4208D91CEB49
:100D2000030300F1FF3402D29F4200F2B08020465C
:100D3000DB1B40EA0640A5E7C1F120068B4022FA02
:100D400006F71F4320FA06FC04FA01F343EA0C03FA
:100D5000F44000FA01F8380C4FEA1349B4FBF0FEF6
:100D60001FFA87FC00FB1E4449EA04440EFB0CF901
:100D7000A14502FA01F20AD93C190EF1FF3A80F0BE
:100D80008480A14540F28180AEF1020E3C44A4EB88
:100D900009041FFA83F9B4FBF0F300FB134449EA9A
:100DA000044403FB0CFCA44507D93C1903F1FF30B4
:100DB00067D2A44565D9023B3C4443EA0E40A0FB00
:100DC0000293A4EB0C049C42CE469C4651D34ED0D9
:100DD00055B1B8EB0E0364EB0C0404FA06F6CB40F5
:100DE0001E43CC40C5E90064002150E7C2F1200356
:100DF00020FA03F10CFA02FC24FA03F394400C43AA
:100E00004FEA1C4800FA02FE1FFA8CF7B3FBF8F019
:100E100008FB1031230C43EA014300FB07F1994220
:100E200008D91CEB030300F1FF362CD299422AD9D2
:100E3000023863445B1AA4B2B3FBF8F108FB113328
:100E400044EA034401FB07F3A34208D91CEB040462
:100E500001F1FF3613D2A34211D902396444E41AD6
:100E600041EA004139E70446F0E6084606E7C8458E
:100E7000AED2B9EB020E63EB070C0138A8E731469E
:100E8000EDE7034699E73046D4E7D6467FE763446B
:100E900002384DE70646234608460FE7023E634404
:100EA00030E700BF704700BF80B500AF00220C21C3
:100EB000052003F00FFB0346064A1360054B1B6831
:100EC000002B04D1044806F07BF800BFFDE700BF0B
:100ED00080BD00BFF8010020D88E000880B582B028
:100EE00002AF114B1B68002B04D1104806F068F8C4
:100EF00000BFFDE7002301930223009300234FF47A
:100F000000620B490B4803F033FE002301930123D9
:100F1000009300234FF480620749084803F028FE3D
:100F200000BFBD4680BD00BFF8010020F88E00085C
:100F3000108F0008410F00081C8F0008950F000853
:100F400080B586B000AF7860104806F039F800F040
:100F500061F8F0EE407AC7ED037A00F09DF8F0EE0C
:100F6000407AC7ED047A04F001F903467B61084B2F
:100F7000186807F10C0100234FF0FF3203F01CFB4F
:100F80004FF47A7003F02EFF00BFE0E7288F0008CF
:100F9000F8010020B0B58AB004AF7860124806F0BE
:100FA0000FF8124B1B6807F10C014FF0FF32184687
:100FB00003F0D4FB0346012BF3D1FB681846FFF77F
:100FC000CBFA04460D463B691846FFF7C5FA0246C0
:100FD0000B4679690291CDE9002322462B4604484D
:100FE00005F086FFDDE700BF408F0008F801002014
:100FF000548F000880B483B000AF7860044A7B68E7
:10100000136000BF0C37BD465DF8047B704700BF1E
:10101000FC01002080B584B002AF00237B711A4B25
:1010200018687A1D4FF0FF3300930123802100F0F0
:1010300083FF142003F0D6FE134B18683A464FF096
:10104000FF3300930223802101F074F83B781B02E8
:101050001AB27B781BB213431BB2FB80FB8807EEEE
:10106000903AB8EEE77ADFED096AC7EE267A9FED8F
:10107000087A67EE877A9FED077A77EEC77AB0EE47
:10108000670A0837BD4680BDFC010020000080478C
:10109000000025430000204280B584B002AF012348
:1010A0007B71184B18687A1D4FF0FF3300930123B2
:1010B000802100F041FF142003F094FE114B1868CA
:1010C0003A464FF0FF3300930223802101F032F8BB
:1010D0003B781B021AB27B781BB213431BB2FB8016
:1010E000FB8807EE903AB8EEE77ADFED076AC7EEC5
:1010F000267A9FED067A67EE877AB0EE670A0837A0
:10110000BD4680BDFC010020000080470000C842B1
:1011100080B500AF00F024FB00F014F800F0CAF82E
:1011200000F070F800F09CF80548FFF763FFFFF748
:10113000BBFEFFF7D3FE03F0D5FE00BFFDE700BF07
:101140000002002080B594B000AF07F120033022E8
:101150000021184606F014F807F10C0300221A606B
:101160005A609A60DA601A610023BB60234B1B6CE3
:10117000224A43F080531364204B1B6C03F08053CE
:10118000BB60BB6800237B601D4B1B6823F440439E
:101190001B4A43F400431360194B1B6803F440439C
:1011A0007B607B6802233B620123FB6210233B636D
:1011B0000023BB6307F12003184601F073FD0346CB
:1011C000002B01D000F0B0F80F23FB6000233B613F
:1011D00000237B610023BB610023FB6107F10C034B
:1011E0000021184601F0D6FF0346002B01D000F085
:1011F0009BF800BF5037BD4680BD00BF003802409D
:101200000070004080B500AF124B134A1A60114BBA
:10121000124A5A600F4B00229A600E4B0022DA608D
:101220000C4B4FF480421A610A4B00225A61094B61
:1012300000229A61074B0022DA61064B00221A62F3
:10124000044800F035FD0346002B01D000F06CF897
:1012500000BF80BD0002002000540040A0860100B5
:1012600080B500AF114B124A1A60104B4FF4E132B7
:101270005A600E4B00229A600C4B0022DA600B4B36
:1012800000221A61094B08225A61084B00229A6118
:10129000064B0022DA61054802F0FCFB0346002BF6
:1012A00001D000F041F800BF80BD00BF5402002013
:1012B0000044004080B483B000AF00237B60104B3B
:1012C0001B6B0F4A43F0010313630D4B1B6B03F0C1
:1012D00001037B607B6800233B60094B1B6B084A62
:1012E00043F002031363064B1B6B03F002033B60E6
:1012F0003B6800BF0C37BD465DF8047B704700BFFC
:101300000038024080B582B000AF78607B681B680F
:10131000044A934201D100F045FA00BF0837BD46A8
:1013200080BD00BF0000014080B400AF72B600BFB6
:1013300000BFFDE780B483B000AF00237B60104B9B
:101340005B6C0F4A43F4804353640D4B5B6C03F4B6
:1013500080437B607B6800233B60094B1B6C084A21
:1013600043F080531364064B1B6C03F080533B60C7
:101370003B6800BF0C37BD465DF8047B704700BF7B
:101380000038024080B58AB000AF786007F11403DE
:1013900000221A605A609A60DA601A617B681B68E2
:1013A000194A93422BD100233B61184B1B6B174A00
:1013B00043F002031363154B1B6B03F002033B6105
:1013C0003B69C0237B611223BB610023FB610323C4
:1013D0003B6204237B6207F1140319460C4800F0BA
:1013E000E3FA0023FB60094B1B6C084A43F400132B
:1013F0001364064B1B6C03F40013FB60FB6800BF17
:101400002837BD4680BD00BF005400400038024070
:101410000004024080B58AB000AF786007F1140381
:1014200000221A605A609A60DA601A617B681B6851
:10143000194A93422BD100233B61184B1B6C174A6E
:1014400043F400331364154B1B6C03F400333B610E
:101450003B690023FB60114B1B6B104A43F00103F7
:1014600013630E4B1B6B03F00103FB60FB680C2343
:101470007B610223BB610023FB6103233B620723E3
:101480007B6207F114031946054800F08DFA00BF8E
:101490002837BD4680BD00BF0044004000380240F0
:1014A0000000024080B58CB000AF78600023BB62C2
:1014B00000237B620023BB602E4B5B6C2D4A43F004
:1014C000010353642B4B5B6C03F00103BB60BB68EF
:1014D00007F10C0207F110031146184602F03AF822
:1014E00002F024F8B862BB6A234AA2FB03239B0CD8
:1014F000013B7B62214B224A1A60204B40F2E732CB
:10150000DA601E4A7B6A53601C4B00221A611B4B37
:1015100000229A60194B00229A61184802F04CF898
:10152000034687F82F3097F82F30002B1BD1134834
:1015300002F09CF8034687F82F3097F82F30002BE5
:1015400011D1192000F022FA7B680F2B08D8002255
:101550007968192000F0FEF90A4A7B68136002E0FE
:10156000012387F82F3097F82F3018463037BD46C3
:1015700080BD00BF0038024083DE1B439C02002078
:10158000000001400400002080B400AF00BFFDE770
:1015900080B400AF00BFFDE780B400AF00BFFDE73F
:1015A00080B400AF00BFFDE780B400AF00BFFDE72F
:1015B00080B400AF00BFBD465DF8047B70470000FB
:1015C00080B500AF024802F0B3F800BF80BD00BF95
:1015D0009C02002080B400AF01231846BD465DF890
:1015E000047B704780B582B000AF7860396005F049
:1015F00019FE034616221A604FF0FF3318460837CB
:10160000BD4680BD80B582B000AF78604FF0FF313D
:101610007868FFF7E7FF00BFFDE780B586B000AF51
:10162000F860B9607A6000237B610AE0AFF3008064
:101630000146BB685A1CBA60CAB21A707B69013392
:101640007B617A697B689A42F0DB7B6818461837C1
:10165000BD4680BD80B584B000AFF860B9607A60E7
:101660007B689AB24FF0FF33B968044802F062FA1F
:101670007B6818461037BD4680BD00BF540200206D
:1016800080B483B000AF78604FF0FF3318460C375A
:10169000BD465DF8047B704780B483B000AF7860CE
:1016A00039603B684FF400525A60002318460C37EB
:1016B000BD465DF8047B704780B483B000AF7860AE
:1016C000012318460C37BD465DF8047B704780B493
:1016D00085B000AFF860B9607A600023184614370F
:1016E000BD465DF8047B704780B400AF064BD3F86D
:1016F0008830054A43F47003C2F8883000BFBD4605
:101700005DF8047B704700BF00ED00E0DFF834D0E7
:10171000FFF7EAFF0C480D490D4A002302E0D458B8
:10172000C4500433C4188C42F9D30A4A0A4C00232B
:1017300001E013600432A242FBD305F079FDFFF70C
:10174000E7FC70470080012000000020DC01002041
:1017500020930008DC01002060310120FEE700003A
:1017600080B500AF0E4B1B680D4A43F40073136045
:101770000B4B1B680A4A43F480631360084B1B68D9
:10178000074A43F480731360032000F0D8F80F2059
:10179000FFF788FEFFF7CEFD0023184680BD00BF8F
:1017A000003C024080B400AF064B1B781A46064B43
:1017B0001B681344044A136000BFBD465DF8047BF8
:1017C000704700BF08000020E402002080B400AF92
:1017D000034B1B681846BD465DF8047B704700BF8D
:1017E000E402002080B485B000AF78607B6803F02D
:1017F0000703FB600C4BDB68BB60BA684FF6FF0366
:101800001340BB60FB681A02BB68134343F0BF631D
:1018100043F40033BB60044ABB68D36000BF143795
:10182000BD465DF8047B704700ED00E080B400AF7A
:10183000044BDB681B0A03F007031846BD465DF83E
:10184000047B704700ED00E080B483B000AF034636
:10185000FB7197F90730002B0BDBFB7903F01F02BC
:10186000074997F907305B09012000FA02F241F8B5
:10187000232000BF0C37BD465DF8047B704700BFD6
:1018800000E100E080B483B000AF03463960FB7133
:1018900097F90730002B0ADB3B68DAB20C4997F95D
:1018A00007301201D2B20B4483F800230AE03B68F0
:1018B000DAB20849FB7903F00F03043B1201D2B2FC
:1018C0000B441A7600BF0C37BD465DF8047B7047A9
:1018D00000E100E000ED00E080B489B000AFF86006
:1018E000B9607A60FB6803F00703FB61FB69C3F131
:1018F0000703042B28BF0423BB61FB690433062BB9
:1019000002D9FB69033B00E000237B614FF0FF320B
:10191000BB6902FA03F3DA43BB681A407B699A4059
:101920004FF0FF317B6901FA03F3D9437B680B4029
:10193000134318462437BD465DF8047B704780B5D5
:1019400082B000AF78607868FFF74CFF00BF0837BF
:10195000BD4680BD80B586B000AF0346B9607A60F1
:10196000FB7300237B61FFF761FF78617A68B968D8
:101970007869FFF7B1FF024697F90F301146184614
:10198000FFF780FF00BF1837BD4680BD80B582B02D
:1019900000AF0346FB7197F907301846FFF754FF75
:1019A00000BF0837BD4680BD80B489B000AF786005
:1019B000396000237B6100233B610023BB6100236E
:1019C000FB6159E10122FB6902FA03F37B613B6889
:1019D0001B687A6913403B613A697B699A4240F01F
:1019E00048813B685B6803F00303012B05D03B682B
:1019F0005B6803F00303022B30D17B689B68BB61FB
:101A0000FB695B00032202FA03F3DB43BA6913406C
:101A1000BB613B68DA68FB695B0002FA03F3BA69F1
:101A20001343BB617B68BA699A607B685B68BB6182
:101A30000122FB6902FA03F3DB43BA691340BB617D
:101A40003B685B681B0903F00102FB6902FA03F3C0
:101A5000BA691343BB617B68BA695A603B685B68CB
:101A600003F00303032B17D07B68DB68BB61FB69C2
:101A70005B00032202FA03F3DB43BA691340BB6144
:101A80003B689A68FB695B0002FA03F3BA69134387
:101A9000BB617B68BA69DA603B685B6803F003038B
:101AA000022B23D1FB69DA087B68083253F8223015
:101AB000BB61FB6903F007039B000F2202FA03F3EB
:101AC000DB43BA691340BB613B681A69FB6903F0E9
:101AD00007039B0002FA03F3BA691343BB61FB6976
:101AE000DA087B680832B96943F822107B681B6802
:101AF000BB61FB695B00032202FA03F3DB43BA69B3
:101B00001340BB613B685B6803F00302FB695B0049
:101B100002FA03F3BA691343BB617B68BA691A60BE
:101B20003B685B6803F44033002B00F0A280002385
:101B3000FB60574B5B6C564A43F480435364544BF1
:101B40005B6C03F48043FB60FB68524AFB699B08B3
:101B5000023352F82330BB61FB6903F003039B009F
:101B60000F2202FA03F3DB43BA691340BB617B68BF
:101B7000494A934219D07B68484A934213D07B6804
:101B8000474A93420DD07B68464A934207D07B6810
:101B9000454A934201D1042308E0072306E00323CA
:101BA00004E0022302E0012300E00023FA6902F0CE
:101BB000030292009340BA691343BB613549FB6944
:101BC0009B080233BA6941F82320384B9B68BB61FC
:101BD0003B69DB43BA691340BB613B685B6803F454
:101BE0008013002B03D0BA693B691343BB612F4AB2
:101BF000BB6993602D4BDB68BB613B69DB43BA6912
:101C00001340BB613B685B6803F40013002B03D0F7
:101C1000BA693B691343BB61244ABB69D360234B58
:101C20005B68BB613B69DB43BA691340BB613B68DE
:101C30005B6803F40033002B03D0BA693B6913439C
:101C4000BB611A4ABB695360184B1B68BB613B6997
:101C5000DB43BA691340BB613B685B6803F48033C4
:101C6000002B03D0BA693B691343BB610F4ABB69C0
:101C70001360FB690133FB61FB690F2B7FF6A2AE9A
:101C800000BF00BF2437BD465DF8047B704700BF2E
:101C900000380240003801400000024000040240C9
:101CA00000080240000C024000100240003C0140CD
:101CB00080B584B000AF78607B68002B01D1012330
:101CC0002BE17B6893F83D30DBB2002B06D17B68BB
:101CD000002283F83C207868FFF754FB7B682422BD
:101CE00083F83D207B681B681A687B681B6822F0BC
:101CF00001021A607B681B681A687B681B6842F4E3
:101D000000421A607B681B681A687B681B6822F4B3
:101D100000421A6001F0F6FBF8607B685B68814A5C
:101D2000934207D8FB68804A934294BF0123002363
:101D3000DBB206E0FB687D4A934294BF0123002397
:101D4000DBB2002B01D00123E7E0FB68784AA2FB5D
:101D500003239B0CBB607B681B685B6823F03F011F
:101D60007B681B68BA680A435A607B681B681B6AF9
:101D700023F03F017B685B686A4A934202D8BB68E4
:101D8000013309E0BB684FF4967202FB03F3694A22
:101D9000A2FB03239B0901337A6812680B43136289
:101DA0007B681B68DB6923F44F4222F0FF027B68EB
:101DB0005B685C498B4219D8FB68591E7B685B687D
:101DC0005B00B1FBF3F3591C40F6FC730B40002B96
:101DD0000AD0FB68591E7B685B685B00B1FBF3F3BC
:101DE0000133C3F30B0351E004234FE07B689B688E
:101DF000002B11D1FB68581E7B6859680B465B00AD
:101E00000B44B0FBF3F30133C3F30B03002B0CBF04
:101E100001230023DBB212E0FB68581E7B6859687F
:101E20000B469B000B4499000B44B0FBF3F30133CA
:101E3000C3F30B03002B0CBF01230023DBB2002BE9
:101E400001D0012322E07B689B68002B0ED1FB6848
:101E5000581E7B6859680B465B000B44B0FBF3F3DC
:101E60000133C3F30B0343F400430FE0FB68581E38
:101E70007B6859680B469B000B4499000B44B0FBF0
:101E8000F3F30133C3F30B0343F440437968096868
:101E90001343CB617B681B681B6823F0C0017B6820
:101EA000DA697B681B6A1A437B681B680A431A60FD
:101EB0007B681B689B6823F4034323F0FF037A6865
:101EC00011697A68D26811437A6812680B4393608B
:101ED0007B681B68DB6823F0FF017B685A697B68BD
:101EE0009B691A437B681B680A43DA607B681B683E
:101EF0001A687B681B6842F001021A607B68002246
:101F00001A647B68202283F83D207B6800221A63D4
:101F10007B68002283F83E20002318461037BD4618
:101F200080BD00BFA08601007F841E00FF083D0029
:101F300083DE1B43D34D621080B588B002AFF860DA
:101F40007A601A460B467B8113463B81FFF73EFCC5
:101F50007861FB6893F83D30DBB2202B40F0E080E5
:101F60007B690093192301227049F86800F064FC32
:101F70000346002B01D00223D3E0FB6893F83C30EA
:101F8000012B01D10223CCE0FB68012283F83C2025
:101F9000FB681B681B6803F00103012B07D0FB687B
:101FA0001B681A68FB681B6842F001021A60FB6834
:101FB0001B681A68FB681B6822F400621A60FB68E1
:101FC000212283F83D20FB68102283F83E20FB6825
:101FD00000221A64FB687A685A62FB683A895A855B
:101FE000FB685B8D9AB2FB681A85FB68504ADA621F
:101FF00079897B693A6AF86800F0CEFA0346002BCB
:1020000001D001238DE000233B61FB681B685B6905
:102010003B61FB681B689B693B613B6966E07A69D1
:10202000396AF86800F022FD0346002B0DD0FB68EA
:102030001B6C042B07D1FB681B681A68FB681B68C4
:1020400042F400721A6001236BE0FB685B6A1A7845
:10205000FB681B681A61FB685B6A5A1CFB685A6262
:10206000FB685B8D9BB2013B9AB2FB685A85FB68AB
:102070001B8D013B9AB2FB681A85FB681B685B6984
:1020800003F00403042B1BD1FB681B8D002B17D01E
:10209000FB685B6A1A78FB681B681A61FB685B6AFD
:1020A0005A1CFB685A62FB685B8D9BB2013B9AB27B
:1020B000FB685A85FB681B8D013B9AB2FB681A8549
:1020C0007A69396AF86800F019FD0346002B0DD0D3
:1020D000FB681B6C042B07D1FB681B681A68FB6844
:1020E0001B6842F400721A6001231AE0FB681B8D22
:1020F000002B94D1FB681B681A68FB681B6842F4CC
:1021000000721A60FB68202283F83D20FB680022E1
:1021100083F83E20FB68002283F83C20002300E087
:10212000022318461837BD4680BD00BF02001000CC
:102130000000FFFF80B58CB002AFF8607A601A46ED
:102140000B467B8113463B81FFF740FB7862FB68BF
:1021500093F83D30DBB2202B40F017827B6A00936E
:10216000192301227C49F86800F066FB0346002B26
:1021700001D002230AE2FB6893F83C30012B01D125
:10218000022303E2FB68012283F83C20FB681B6802
:102190001B6803F00103012B07D0FB681B681A685A
:1021A000FB681B6842F001021A60FB681B681A6832
:1021B000FB681B6822F400621A60FB68222283F825
:1021C0003D20FB68102283F83E20FB6800221A6441
:1021D000FB687A685A62FB683A895A85FB685B8DAE
:1021E0009AB2FB681A85FB685C4ADA6279897B6A75
:1021F0003A6BF86800F052FA0346002B01D0012335
:10220000C4E1FB681B8D002B13D100233B62FB68EC
:102210001B685B693B62FB681B689B693B623B6AAE
:10222000FB681B681A68FB681B6842F400721A603E
:1022300098E1FB681B8D012B1BD1FB681B681A689A
:10224000FB681B6822F480621A600023FB61FB6854
:102250001B685B69FB61FB681B689B69FB61FB6931
:10226000FB681B681A68FB681B6842F400721A60FE
:1022700078E1FB681B8D022B1BD1FB681B681A6879
:10228000FB681B6822F480621A60FB681B681A688E
:10229000FB681B6842F400621A600023BB61FB68A4
:1022A0001B685B69BB61FB681B689B69BB61BB69A1
:1022B00058E1FB681B681A68FB681B6842F480627F
:1022C0001A6000237B61FB681B685B697B61FB68AC
:1022D0001B689B697B617B6944E1FB681B8D032B59
:1022E00000F2F180FB681B8D012B23D17A6A396BD8
:1022F000F86800F04BFC0346002B01D0012345E1B8
:10230000FB681B681A69FB685B6AD2B21A70FB68CB
:102310005B6A5A1CFB685A62FB681B8D013B9AB2D0
:10232000FB681A85FB685B8D9BB2013B9AB2FB6828
:102330005A8517E1FB681B8D022B4ED17B6A0093F7
:102340003B6B00220649F86800F076FA0346002B42
:1023500008D001231AE100BF020010000000FFFFB7
:1023600004000100FB681B681A68FB681B6842F4E4
:1023700000721A60FB681B681A69FB685B6AD2B25C
:102380001A70FB685B6A5A1CFB685A62FB681B8DFB
:10239000013B9AB2FB681A85FB685B8D9BB2013BDF
:1023A0009AB2FB685A85FB681B681A69FB685B6A0E
:1023B000D2B21A70FB685B6A5A1CFB685A62FB68EF
:1023C0001B8D013B9AB2FB681A85FB685B8D9BB243
:1023D000013B9AB2FB685A85C4E07B6A00933B6B71
:1023E00000226C49F86800F027FA0346002B01D060
:1023F0000123CBE0FB681B681A68FB681B6822F4AA
:1024000080621A60FB681B681A69FB685B6AD2B25B
:102410001A70FB685B6A5A1CFB685A62FB681B8D6A
:10242000013B9AB2FB681A85FB685B8D9BB2013B4E
:102430009AB2FB685A857B6A00933B6B0022554930
:10244000F86800F0F9F90346002B01D001239DE064
:10245000FB681B681A68FB681B6842F400721A600C
:10246000FB681B681A69FB685B6AD2B21A70FB686A
:102470005B6A5A1CFB685A62FB681B8D013B9AB26F
:10248000FB681A85FB685B8D9BB2013B9AB2FB68C7
:102490005A85FB681B681A69FB685B6AD2B21A70BE
:1024A000FB685B6A5A1CFB685A62FB681B8D013B28
:1024B0009AB2FB681A85FB685B8D9BB2013B9AB2AE
:1024C000FB685A854EE07A6A396BF86800F05EFB6B
:1024D0000346002B01D0012358E0FB681B681A69F2
:1024E000FB685B6AD2B21A70FB685B6A5A1CFB68B5
:1024F0005A62FB681B8D013B9AB2FB681A85FB6828
:102500005B8D9BB2013B9AB2FB685A85FB681B68E6
:102510005B6903F00403042B24D1FB681B8D032BA0
:1025200007D1FB681B681A68FB681B6822F480628D
:102530001A60FB681B681A69FB685B6AD2B21A7082
:10254000FB685B6A5A1CFB685A62FB681B8D013B87
:102550009AB2FB681A85FB685B8D9BB2013B9AB20D
:10256000FB685A85FB681B8D002B7FF4B6AEFB68B9
:10257000202283F83D20FB68002283F83E20FB6880
:10258000002283F83C20002300E00223184628376D
:10259000BD4680BD0400010080B588B002AFF86080
:1025A0007A603B600B467B81FB68DB6A7B617B6901
:1025B000082B06D07B69012B03D07B6913F5803F84
:1025C00008D1FB681B681A68FB681B6842F48072BC
:1025D0001A600BE0FB681B6B122B07D1FB681B68B2
:1025E0001A68FB681B6842F480721A603B680093AB
:1025F0007B6800224FF00111F86800F01DF90346D6
:10260000002B0DD0FB681B681B6803F48073B3F5C7
:10261000807F03D1FB684FF400721A64032335E016
:10262000FB681B69B3F5804F08D17B89DBB21A4682
:10263000FB681B6802F0FE021A611BE07B89DB115C
:10264000DBB203F00603DBB263F00F03DAB2FB6820
:102650001B681A613B687A680E49F86800F066F9F1
:102660000346002B01D0012310E07B89DAB2FB681E
:102670001B681A613B687A680749F86800F056F9E8
:102680000346002B01D0012300E000231846183731
:10269000BD4680BD080001000200010080B588B081
:1026A00002AFF8607A603B600B467B81FB68DB6AB7
:1026B0007B61FB681B681A68FB681B6842F48062D8
:1026C0001A607B69082B06D07B69012B03D07B69DC
:1026D00013F5803F08D1FB681B681A68FB681B680C
:1026E00042F480721A600BE0FB681B6B112B07D160
:1026F000FB681B681A68FB681B6842F480721A60EA
:102700003B6800937B6800224FF00111F86800F0ED
:1027100093F80346002B0DD0FB681B681B6803F47D
:102720008073B3F5807F03D1FB684FF400721A64A5
:10273000032379E0FB681B69B3F5804F08D17B89DF
:10274000DBB243F00103DAB2FB681B681A615FE099
:102750007B89DB11DBB203F00603DBB263F00F030E
:10276000DAB2FB681B681A613B687A683049F8681E
:1027700000F0DCF80346002B01D0012354E07B89F4
:10278000DAB2FB681B681A613B687A682949F86805
:1027900000F0CCF80346002B01D0012344E00023D5
:1027A0003B61FB681B685B693B61FB681B689B695D
:1027B0003B613B69FB681B681A68FB681B6842F455
:1027C00080721A603B6800937B6800224FF0011111
:1027D000F86800F031F80346002B0DD0FB681B6849
:1027E0001B6803F48073B3F5807F03D1FB684FF45B
:1027F00000721A64032317E07B89DB11DBB203F05C
:102800000603DBB263F00E03DAB2FB681B681A61E1
:102810003B687A680749F86800F088F80346002B9F
:1028200001D0012300E0002318461837BD4680BDC3
:10283000080001000200010080B584B000AFF8601C
:10284000B9603B601346FB7148E03B68B3F1FF3F62
:1028500044D0FEF7BBFF0246BB69D31A3A689A42DE
:1028600002D33B68002B39D1BB681B0CDBB2012BB8
:102870000DD1FB681B685B69DA43BB6813409BB2F0
:10288000002B0CBF01230023DBB21A460CE0FB68CF
:102890001B689B69DA43BB6813409BB2002B0CBFDB
:1028A00001230023DBB21A46FB799A4216D1FB685A
:1028B00000221A63FB68202283F83D20FB68002277
:1028C00083F83E20FB681B6C43F02002FB681A640F
:1028D000FB68002283F83C20012323E0BB681B0C2B
:1028E000DBB2012B0DD1FB681B685B69DA43BB6867
:1028F00013409BB2002B0CBF01230023DBB21A460E
:102900000CE0FB681B689B69DA43BB6813409BB211
:10291000002B0CBF01230023DBB21A46FB799A423D
:1029200093D0002318461037BD4680BD80B584B0D3
:1029300000AFF860B9607A603B6071E0FB681B68CB
:102940005B6903F48063B3F5806F23D1FB681B6878
:102950001A68FB681B6842F400721A60FB681B6807
:102960006FF480625A61FB6800221A63FB682022C0
:1029700083F83D20FB68002283F83E20FB681B6C37
:1029800043F00402FB681A64FB68002283F83C20D1
:10299000012367E07B68B3F1FF3F41D0FEF716FFEC
:1029A00002463B68D31A7A689A4202D37B68002BAE
:1029B00036D1BB681B0CDBB2012B0CD1FB681B684A
:1029C0005B69DA43BB6813409BB2002B14BF012341
:1029D0000023DBB20BE0FB681B689B69DA43BB6832
:1029E00013409BB2002B14BF01230023DBB2002B4A
:1029F00016D0FB6800221A63FB68202283F83D2072
:102A0000FB68002283F83E20FB681B6C43F0200229
:102A1000FB681A64FB68002283F83C20012321E054
:102A2000BB681B0CDBB2012B0CD1FB681B685B691C
:102A3000DA43BB6813409BB2002B14BF0123002371
:102A4000DBB20BE0FB681B689B69DA43BB68134091
:102A50009BB2002B14BF01230023DBB2002B7FF4B9
:102A60006DAF002318461037BD4680BD80B584B0D9
:102A700000AFF860B9607A6034E0F86800F0E3F81D
:102A80000346002B01D0012334E0BB68B3F1FF3FC4
:102A900028D0FEF79BFE02467B68D31ABA689A429A
:102AA00002D3BB68002B1DD1FB681B685B6903F078
:102AB0008003802B16D0FB6800221A63FB6820225B
:102AC00083F83D20FB68002283F83E20FB681B6CE6
:102AD00043F02002FB681A64FB68002283F83C2064
:102AE000012307E0FB681B685B6903F08003802B10
:102AF000C3D1002318461037BD4680BD80B584B0D1
:102B000000AFF860B9607A6034E0F86800F09BF8D4
:102B10000346002B01D0012334E0BB68B3F1FF3F33
:102B200028D0FEF753FE02467B68D31ABA689A4251
:102B300002D3BB68002B1DD1FB681B685B6903F0E7
:102B40000403042B16D0FB6800221A63FB682022C2
:102B500083F83D20FB68002283F83E20FB681B6C55
:102B600043F02002FB681A64FB68002283F83C20D3
:102B7000012307E0FB681B685B6903F00403042B77
:102B8000C3D1002318461037BD4680BD80B584B040
:102B900000AFF860B9607A6049E0FB681B685B6968
:102BA00003F01003102B19D1FB681B686FF01002A3
:102BB0005A61FB6800221A63FB68202283F83D20DB
:102BC000FB68002283F83E20FB681A6CFB681A64DD
:102BD000FB68002283F83C20012330E0FEF7F6FD7D
:102BE00002467B68D31ABA689A4202D3BB68002BAC
:102BF0001DD1FB681B685B6903F04003402B16D0B6
:102C0000FB6800221A63FB68202283F83D20FB68E2
:102C1000002283F83E20FB681B6C43F02002FB6817
:102C20001A64FB68002283F83C20012307E0FB685C
:102C30001B685B6903F04003402BAED100231846AC
:102C40001037BD4680BD80B483B000AF78607B682C
:102C50001B685B6903F48063B3F5806F1BD17B68ED
:102C60001B686FF480625A617B6800221A637B687C
:102C7000202283F83D207B68002283F83E207B6879
:102C80001B6C43F004027B681A647B68002283F8A3
:102C90003C20012300E0002318460C37BD465DF8B8
:102CA000047B704780B586B000AF78607B68002BEE
:102CB00001D1012367E27B681B6803F00103002B4D
:102CC00075D0884B9B6803F00C03042B0CD0854B0C
:102CD0009B6803F00C03082B12D1824B5B6803F452
:102CE0008003B3F5800F0BD17E4B1B6803F40033D8
:102CF000002B5BD07B685B68002B57D1012342E23D
:102D00007B685B68B3F5803F06D1764B1B68754ADC
:102D100043F4803313601DE07B685B68B3F5A02F3C
:102D20000CD1704B1B686F4A43F4802313606D4BCA
:102D30001B686C4A43F4803313600BE0694B1B68DB
:102D4000684A23F480331360664B1B68654A23F49A
:102D5000802313607B685B68002B13D0FEF736FD81
:102D6000386108E0FEF732FD02463B69D31A642B56
:102D700001D9032307E25B4B1B6803F40033002BEC
:102D8000F0D014E0FEF722FD386108E0FEF71EFDEA
:102D900002463B69D31A642B01D90323F3E1514B5B
:102DA0001B6803F40033002BF0D100E000BF7B6808
:102DB0001B6803F00203002B63D04A4B9B6803F0AF
:102DC0000C03002B0BD0474B9B6803F00C03082B24
:102DD0001CD1444B5B6803F48003002B16D1414B9C
:102DE0001B6803F00203002B05D07B68DB68012B16
:102DF00001D00123C7E13B4B1B6823F0F8027B683D
:102E00001B69DB00374913430B603AE07B68DB68E2
:102E1000002B20D0344B01221A60FEF7D7FC38611A
:102E200008E0FEF7D3FC02463B69D31A022B01D916
:102E30000323A8E12B4B1B6803F00203002BF0D007
:102E4000284B1B6823F0F8027B681B69DB002549CF
:102E500013430B6015E0244B00221A60FEF7B6FC0A
:102E6000386108E0FEF7B2FC02463B69D31A022B38
:102E700001D9032387E11B4B1B6803F00203002BDE
:102E8000F0D17B681B6803F00803002B36D07B6809
:102E90005B69002B16D0154B01221A60FEF796FCD9
:102EA000386108E0FEF792FC02463B69D31A022B18
:102EB00001D9032367E10B4B5B6F03F00203002B87
:102EC000F0D01BE0094B00221A60FEF77FFC38614E
:102ED0000EE0FEF77BFC02463B69D31A022B07D9B2
:102EE000032350E10038024000004742800E474271
:102EF000884B5B6F03F00203002BEAD17B681B68F1
:102F000003F00403002B00F097800023FB75814B36
:102F10001B6C03F08053002B0FD10023BB607D4B53
:102F20001B6C7C4A43F0805313647A4B1B6C03F098
:102F30008053BB60BB680123FB75774B1B6803F4B0
:102F40008073002B18D1744B1B68734A43F4807351
:102F50001360FEF73BFC386108E0FEF737FC0246E1
:102F60003B69D31A022B01D903230CE16A4B1B687E
:102F700003F48073002BF0D07B689B68012B06D193
:102F8000644B1B6F634A43F0010313671CE07B68CB
:102F90009B68052B0CD15F4B1B6F5E4A43F004030B
:102FA00013675C4B1B6F5B4A43F0010313670BE035
:102FB000584B1B6F574A23F001031367554B1B6F88
:102FC000544A23F0040313677B689B68002B15D0D9
:102FD000FEF7FCFB38610AE0FEF7F8FB02463B69AE
:102FE000D31A41F28832934201D90323CBE0494BF3
:102FF0001B6F03F00203002BEED014E0FEF7E6FB9C
:1030000038610AE0FEF7E2FB02463B69D31A41F25F
:103010008832934201D90323B5E03E4B1B6F03F086
:103020000203002BEED1FB7D012B05D1394B1B6C2C
:10303000384A23F0805313647B689B69002B00F0AF
:10304000A180344B9B6803F00C03082B5CD07B6899
:103050009B69022B41D1314B00221A60FEF7B6FB6F
:10306000386108E0FEF7B2FB02463B69D31A022B37
:1030700001D9032387E0274B1B6803F00073002B63
:10308000F0D17B68DA697B681B6A1A437B685B6AEC
:103090009B011A437B689B6A5B08013B1B041A4334
:1030A0007B68DB6A1B061B4913434B601B4B0122E9
:1030B0001A60FEF78BFB386108E0FEF787FB0246DB
:1030C0003B69D31A022B01D903235CE0114B1B6827
:1030D00003F00073002BF0D054E0104B00221A6074
:1030E000FEF774FB386108E0FEF770FB02463B69AF
:1030F000D31A022B01D9032345E0064B1B6803F0CA
:103100000073002BF0D13DE07B689B69012B07D158
:10311000012338E000380240007000406000474260
:103120001B4B5B68FB607B689B69012B28D0FB68AD
:1031300003F480027B68DB699A4221D1FB6803F0CB
:103140003F027B681B6A9A421AD1FA6847F6C0733D
:1031500013407A68526A9201934211D1FB6803F4DA
:1031600040327B689B6A5B08013B1B049A4207D193
:10317000FB6803F070627B68DB6A1B069A4201D031
:10318000012300E0002318461837BD4680BD00BF6C
:103190000038024080B584B000AF786039607B6849
:1031A000002B01D10123CCE0684B1B6803F007031F
:1031B0003A689A420CD9654B3A68D2B21A70634B9E
:1031C0001B6803F007033A689A4201D00123B8E074
:1031D0007B681B6803F00203002B20D07B681B6810
:1031E00003F00403002B05D0594B9B68584A43F465
:1031F000E05393607B681B6803F00803002B05D045
:10320000534B9B68524A43F460439360504B9B6816
:1032100023F0F0027B689B684D4913438B607B6809
:103220001B6803F00103002B44D07B685B68012B13
:1032300007D1474B1B6803F40033002B19D101233E
:103240007FE07B685B68022B03D07B685B68032BA5
:1032500007D13F4B1B6803F00073002B09D10123FA
:103260006FE03B4B1B6803F00203002B01D10123ED
:1032700067E0374B9B6823F003027B685B68344947
:1032800013438B60FEF7A2FAF8600AE0FEF79EFA9D
:103290000246FB68D31A41F28832934201D90323D4
:1032A0004FE02B4B9B6803F00C027B685B689B0034
:1032B0009A42EBD1254B1B6803F007033A689A4208
:1032C0000CD2224B3A68D2B21A70204B1B6803F022
:1032D00007033A689A4201D0012332E07B681B68F9
:1032E00003F00403002B08D0194B9B6823F4E05231
:1032F0007B68DB68164913438B607B681B6803F0AF
:103300000803002B09D0124B9B6823F460427B68B2
:103310001B69DB000E4913438B6000F021F8024665
:103320000B4B9B681B0903F00F030A49CB5C22FA85
:1033300003F3094A1360094B1B681846FEF7B2F8FD
:10334000002318461037BD4680BD00BF003C024038
:1033500000380240888F0008000000200400002090
:103360002DE9B04F90B000AF00237B630023FB63D7
:1033700000233B630023BB63594B9B6803F00C03A2
:10338000082B0DD0082B00F2A180002B02D0042BBB
:1033900003D09BE0534BBB639BE0534BBB6398E074
:1033A0004F4B5B6803F03F037B634D4B5B6803F45B
:1033B0008003002B28D04A4B5B689B0900223B62AC
:1033C0007A623B6AC3F308000021474B03FB01F21A
:1033D000002300FB03F31344434AA0FB0212FA62EA
:1033E0000A46BA62FA6A1344FB627B6B0022BB6135
:1033F000FA61D7E90623D7E90A01FDF7DDFB0246AA
:103400000B461346FB6353E0354B5B689B09002278
:103410003B617A613B69C3F3080A4FF0000B5246E7
:103420005B464FF000004FF00001590141EAD261C4
:10343000500102460B46B2EB0A0863EB0B094FF052
:1034400000024FF000034FEA891343EA98634FEA02
:103450008812B2EB080463EB09054FF000024FF04D
:103460000003EB0043EA5473E20014461D4614EBDC
:103470000A033B6045EB0B037B604FF000024FF00B
:103480000003D7E9004529468B02214643EA9153C0
:1034900021468A02104619467B6B0022BB60FA6007
:1034A000D7E90223FDF788FB02460B461346FB6370
:1034B0000B4B5B681B0C03F0030301335B003B63A6
:1034C000FA6B3B6BB2FBF3F3BB6302E0054BBB63F0
:1034D00000BFBB6B18464037BD46BDE8B08F00BF8C
:1034E000003802400024F40040787D0180B400AF31
:1034F000034B1B681846BD465DF8047B704700BF50
:103500000000002080B500AFFFF7F0FF0246054B3A
:103510009B689B0A03F007030349CB5C22FA03F381
:10352000184680BD00380240988F000880B500AF73
:10353000FFF7DCFF0246054B9B685B0B03F00703BC
:103540000349CB5C22FA03F3184680BD00380240E1
:10355000988F000880B483B000AF786039607B68D2
:103560000F221A60124B9B6803F003027B685A60BB
:103570000F4B9B6803F0F0027B689A600C4B9B68D2
:1035800003F4E0527B68DA60094B9B68DB0803F4C4
:10359000E0527B681A61074B1B6803F007023B6827
:1035A0001A6000BF0C37BD465DF8047B704700BF52
:1035B00000380240003C024080B582B000AF786025
:1035C0007B68002B01D1012341E07B6893F83D30FB
:1035D000DBB2002B06D17B68002283F83C207868A0
:1035E00000F039F87B68022283F83D207B681A6876
:1035F0007B6804331946104600F0B2F97B6801225B
:1036000083F846207B68012283F83E207B680122F4
:1036100083F83F207B68012283F840207B680122E9
:1036200083F841207B68012283F842207B680122D5
:1036300083F843207B68012283F844207B680122C1
:1036400083F845207B68012283F83D20002318463B
:103650000837BD4680BD80B483B000AF786000BF3E
:103660000C37BD465DF8047B7047000080B485B020
:1036700000AF78607B6893F83D30DBB2012B01D05E
:10368000012344E07B68022283F83D207B681B68AD
:10369000DA687B681B6842F00102DA607B681B68AD
:1036A0001E4A934218D07B681B68B3F1804F13D039
:1036B0007B681B681A4A93420ED07B681B68194AC4
:1036C000934209D07B681B68174A934204D07B68F9
:1036D0001B68164A934211D17B681B689B6803F0F4
:1036E0000703FB60FB68062B10D07B681B681A6819
:1036F0007B681B6842F001021A6007E07B681B6868
:103700001A687B681B6842F001021A6000231846A1
:103710001437BD465DF8047B704700BF00000140D0
:103720000004004000080040000C00400040014040
:1037300080B584B000AF78607B681B68DB68FB6095
:103740007B681B681B69BB60BB6803F00203002B2E
:1037500020D0FB6803F00203002B1BD07B681B68A2
:103760006FF002021A617B6801221A777B681B687E
:103770009B6903F00303002B03D0786800F0D2F8B4
:1037800005E0786800F0C4F8786800F0D5F87B6848
:1037900000221A77BB6803F00403002B20D0FB68DB
:1037A00003F00403002B1BD07B681B686FF004023E
:1037B0001A617B6802221A777B681B689B6903F495
:1037C0004073002B03D0786800F0ACF805E078680F
:1037D00000F09EF8786800F0AFF87B6800221A7756
:1037E000BB6803F00803002B20D0FB6803F008033C
:1037F000002B1BD07B681B686FF008021A617B6886
:1038000004221A777B681B68DB6903F00303002B33
:1038100003D0786800F086F805E0786800F078F862
:10382000786800F089F87B6800221A77BB6803F09B
:103830001003002B20D0FB6803F01003002B1BD0DB
:103840007B681B686FF010021A617B6808221A7788
:103850007B681B68DB6903F44073002B03D0786836
:1038600000F060F805E0786800F052F8786800F041
:1038700063F87B6800221A77BB6803F00103002B12
:103880000CD0FB6803F00103002B07D07B681B689A
:103890006FF001021A617868FDF734FDBB6803F030
:1038A0008003002B0CD0FB6803F08003002B07D0B3
:1038B0007B681B686FF080021A61786800F0E0F89E
:1038C000BB6803F04003002B0CD0FB6803F04003FF
:1038D000002B07D07B681B686FF040021A61786884
:1038E00000F034F8BB6803F02003002B0CD0FB6819
:1038F00003F02003002B07D07B681B686FF02002C9
:103900001A61786800F0B2F800BF1037BD4680BD7C
:1039100080B483B000AF786000BF0C37BD465DF85F
:10392000047B704780B483B000AF786000BF0C3771
:10393000BD465DF8047B704780B483B000AF78600B
:1039400000BF0C37BD465DF8047B704780B483B080
:1039500000AF786000BF0C37BD465DF8047B704750
:1039600080B485B000AF786039607B681B68FB600D
:103970007B68374A93420FD07B68B3F1804F0BD0FE
:103980007B68344A934207D07B68334A934203D022
:103990007B68324A934208D1FB6823F07003FB60D6
:1039A0003B685B68FA681343FB607B68284A934274
:1039B0001BD07B68B3F1804F17D07B68254A9342B8
:1039C00013D07B68244A93420FD07B68234A9342EA
:1039D0000BD07B68224A934207D07B68214A9342EE
:1039E00003D07B68204A934208D1FB6823F44073DC
:1039F000FB603B68DB68FA681343FB60FB6823F0FD
:103A000080023B685B691343FB603B689A687B6894
:103A1000DA623B681A687B689A627B680C4A934258
:103A200003D13B681A697B681A637B681B6843F0A3
:103A300004027B681A607B6801225A617B68FA681D
:103A40001A6000BF1437BD465DF8047B704700BFA5
:103A5000000001400004004000080040000C00404D
:103A600000400140004401400048014080B483B060
:103A700000AF786000BF0C37BD465DF8047B70472F
:103A800080B483B000AF786000BF0C37BD465DF8EE
:103A9000047B704780B582B000AF78607B68002BF4
:103AA00001D1012342E07B6893F84130DBB2002B67
:103AB00006D17B68002283F840207868FDF7AAFCD5
:103AC0007B68242283F841207B681B68DA687B6866
:103AD0001B6822F40052DA60786800F073F97B68A2
:103AE0001B681A697B681B6822F490421A617B6824
:103AF0001B685A697B681B6822F02A025A617B683E
:103B00001B68DA687B681B6842F40052DA607B68E5
:103B100000225A647B68202283F841207B6820229F
:103B200083F842207B6800225A6300231846083736
:103B3000BD4680BD80B58AB002AFF860B9603B6019
:103B40001346FB8000237B61FB6893F84130DBB2B6
:103B5000202B75D1BB68002B02D0FB88002B01D134
:103B600001236EE0FB6800225A64FB68212283F87F
:103B70004120FDF72BFE7861FB68FA889A84FB6888
:103B8000FA88DA84FB689B68B3F5805F08D1FB682C
:103B90001B69002B04D10023FB61BB68BB6103E000
:103BA000BB68FB610023BB612EE03B6800937B692F
:103BB00000228021F86800F048F80346002B05D069
:103BC000FB68202283F8412003233AE0FB69002BA5
:103BD0000BD1BB691B881A46FB681B68C2F308023D
:103BE0005A60BB690233BB6107E0FB691A78FB6866
:103BF0001B685A60FB690133FB61FB68DB8C9BB27D
:103C0000013B9AB2FB68DA84FB68DB8C9BB2002B29
:103C1000CBD13B6800937B6900224021F86800F01B
:103C200014F80346002B05D0FB68202283F84120BE
:103C3000032306E0FB68202283F84120002300E0F4
:103C4000022318462037BD4680BD80B586B000AF40
:103C5000F860B9603B601346FB713BE03B6AB3F12F
:103C6000FF3F37D0FDF7B2FD02463B68D31A3A6AF0
:103C70009A4202D33B6A002B01D103233AE0FB684E
:103C80001B68DB6803F00403002B23D0BB68802B88
:103C900020D0BB68402B1DD0FB681B681B6803F05D
:103CA0000803082B16D100237B61FB681B681B6887
:103CB0007B61FB681B685B687B617B69F86800F06F
:103CC0001DF8FB6808225A64FB68002283F8402034
:103CD00001230FE0FB681B681A68BB681340BA68D1
:103CE0009A420CBF01230023DBB21A46FB799A42A9
:103CF000B4D0002318461837BD4680BD80B495B0B7
:103D000000AF78607B681B680C337B637B6B53E888
:103D1000003F3B633B6B23F49073FB647B681B6841
:103D20000C33FA6C3A64FB63F96B3A6C41E800239C
:103D3000BB63BB6B002BE5D17B681B6814333B6214
:103D40003B6A53E8003FFB61FB6923F00103BB645E
:103D50007B681B681433BA6CFA62BB62B96AFA6A90
:103D600041E800237B627B6A002BE5D17B681B6BFB
:103D7000012B19D17B681B680C33FB60FB6853E88F
:103D8000003FBB60BB6823F010037B647B681B684B
:103D90000C337A6CBA617B617969BA6941E80023B6
:103DA0003B613B69002BE5D17B68202283F84220F0
:103DB0007B6800221A6300BF5437BD465DF8047B60
:103DC000704700002DE9B04FC0B000AFC7F8F40055
:103DD000D7F8F4301B681B6923F44050D7F8F4304F
:103DE000D968D7F8F4301A6840EA01031361D7F8AC
:103DF000F4309A68D7F8F4301B691A43D7F8F430D6
:103E00005B691A43D7F8F430DB691343C7F8F8301D
:103E1000D7F8F4301B68DB6823F4164121F00C015D
:103E2000D7F8F4301A68D7F8F8300B43D360D7F8D6
:103E3000F4301B685B6923F44070D7F8F43099695B
:103E4000D7F8F4301A6840EA01035361D7F8F43028
:103E50001A688F4B9A4205D0D7F8F4301A688D4B08
:103E60009A4204D1FFF762FBC7F8FC0003E0FFF7BA
:103E700049FBC7F8FC00D7F8F430DB69B3F5004F15
:103E800040F00C81D7F8FC300022C7F8E830C7F8C2
:103E9000EC20D7E93A4522462B469118B9655B419B
:103EA000FB65D7E91623214612EB0108294643EBAF
:103EB00001094FF000024FF000034FEAC90343EA43
:103EC00058734FEAC80290469946234618EB0303FD
:103ED000C7F8E0302B4649EB0303C7F8E430D7F8C6
:103EE000F4305B680022C7F8D830C7F8DC20D7E987
:103EF00036120B46DB183B65134642EB03037B652A
:103F0000D7E91423D7E93801FCF756FE02460B46E1
:103F1000614BA3FB02235B091C01D7F8FC30002294
:103F2000C7F8D030C7F8D420D7E9348942464B4689
:103F30009118B9645B41FB64D7E91223414612EB47
:103F4000010A494643EB010B4FF000024FF000031A
:103F50004FEACB0343EA5A734FEACA0292469B46A2
:103F600043461AEB0303C7F8C8304B464BEB030339
:103F7000C7F8CC30D7F8F4305B680022C7F8C030FF
:103F8000C7F8C420D7E930120B46DB183B64134650
:103F900042EB03037B64D7E91023D7E93201FCF736
:103FA0000BFE02460B4611463B4BA3FB01235B096C
:103FB000642202FB03F3CB1ADB0003F13202364B1F
:103FC000A3FB02235B095B0003F4F8731C44D7F8DE
:103FD000FC300022C7F8B830C7F8BC20D7E92E89DA
:103FE00042464B469118B9635B41FB63D7E90E2308
:103FF00041465118396349464B417B634FF00002FB
:104000004FF00003D7E90CAB5946CB00514643EAC9
:1040100051735146CA0010461946034642469B1842
:10402000C7F8B0304B460A4642EB0303C7F8B4303A
:10403000D7F8F4305B680022C7F8A830C7F8AC2086
:10404000D7E92A120B46DB18BB62134642EB030387
:10405000FB62D7E90A23D7E92C01FCF7ADFD024644
:104060000B460D4BA3FB02135B09642101FB03F319
:10407000D31ADB003233084AA2FB03235B0903F0A7
:104080000702D7F8F4301B6822449A6006E100BFAB
:1040900000100140001401401F85EB51D7F8FC309F
:1040A0000022C7F8A030C7F8A420D7E928894246E3
:1040B0004B46911839625B417B62D7E90823414640
:1040C0005418494643EB01054FF000024FF000033E
:1040D000EB0043EA5473E20014461D464346E318DE
:1040E000C7F898304B4645EB0303C7F89C30D7F828
:1040F000F4305B680022C7F89030C7F894204FF086
:1041000000024FF00003D7E9244529468B002146E1
:1041100043EA917321468A00D7E92601FCF74CFD5A
:1041200002460B46604BA3FB02235B091C01D7F838
:10413000FC300022C7F88830C7F88C20D7E92289E4
:1041400042464B469118B9615B41FB61D7E90623B2
:1041500041465118396149464B417B614FF000029D
:104160004FF00003D7E904AB5946CB00514643EA70
:1041700051735146CA0010461946034642469B18E1
:10418000C7F880304B460A4642EB0303C7F8843039
:10419000D7F8F4305B680022BB67FA674FF0000283
:1041A0004FF00003D7E91E8949468B00414643EA98
:1041B000917341468A00D7E92001FCF7FDFC0246D5
:1041C0000B461146384BA3FB01235B09642202FB1B
:1041D00003F3CB1A1B013233334AA2FB03235B09DF
:1041E00003F0F0031C44D7F8FC3000223B677A67E9
:1041F000D7E91C8942464B469118B9605B41FB6088
:10420000D7E9022341465118396049464B417B604A
:104210004FF000024FF00003D7E900AB5946CB0046
:10422000514643EA51735146CA00104619460346A7
:1042300042469B18BB664B460A4642EB0303FB66AD
:10424000D7F8F4305B6800223B667A664FF00002D4
:104250004FF00003D7E9188949468B00414643EAED
:10426000917341468A00D7E91A01FCF7A5FC024682
:104270000B460D4BA3FB02135B09642101FB03F307
:10428000D31A1B013233084AA2FB03235B0903F054
:104290000F02D7F8F4301B6822449A6000BF07F57C
:1042A0008077BD46BDE8B08F1F85EB5180B483B0E9
:1042B00000AF78607B6803F108027B685A607B6816
:1042C0004FF0FF329A607B6803F108027B68DA6086
:1042D0007B6803F108027B681A617B6800221A6020
:1042E00000BF0C37BD465DF8047B704780B483B0D7
:1042F00000AF78607B6800221A6100BF0C37BD46B2
:104300005DF8047B704780B485B000AF7860396099
:104310003B681B68BB60BB68B3F1FF3F03D17B68A0
:104320001B69FB600CE07B680833FB6002E0FB6804
:104330005B68FB60FB685B681B68BA689A42F6D2F0
:10434000FB685A683B685A603B685B683A689A60E9
:104350003B68FA689A60FB683A685A603B687A681A
:104360001A617B681B685A1C7B681A6000BF14378F
:10437000BD465DF8047B704780B485B000AF7860BF
:104380007B681B69FB607B685B687A6892689A60EF
:104390007B689B687A6852685A60FB685B687A68D9
:1043A0009A4203D17B689A68FB685A607B68002256
:1043B0001A61FB681B685A1EFB681A60FB681B6861
:1043C00018461437BD465DF8047B704780B586B04B
:1043D00000AF7860396001237B617B683B613B699A
:1043E000002B0BD14FF0500383F31188BFF36F8F75
:1043F000BFF34F8FFB6000BF00BFFDE73B69002BA1
:1044000052D03B69DB6B002B4ED03B691A6C3B6989
:10441000DB6B0021A3FB0223002B00D001210B4604
:10442000002B41D101F0E6FC3B691A683B69DB6B6C
:104430003969096C01FB03F31A443B699A603B69D3
:1044400000229A633B691A683B695A603B691A68A3
:104450003B69DB6B013B3969096C01FB03F31A44CF
:104460003B69DA603B69FF2283F844203B69FF2205
:1044700083F845203B68002B09D13B691B69002B61
:104480000FD03B691033184600F0FAFF09E03B6992
:1044900010331846FFF70AFF3B6924331846FFF72D
:1044A00005FF01F0D9FC01E000237B617B69002B53
:1044B0000BD14FF0500383F31188BFF36F8FBFF31D
:1044C0004F8FBB6000BF00BFFDE77B691846183700
:1044D000BD4680BD80B58AB002AFF860B9601346B2
:1044E000FB710023FB61FB68002B2ED00021BA6812
:1044F000FB68A3FB0223002B00D001210B46002BFD
:1045000023D1FB68BA6802FB03F313F1510F1CD8E7
:10451000FB68BA6802FB03F3BB61BB695033184602
:1045200001F04CFDF861FB69002B1DD0FB697B613C
:104530007B6950337B61FA79FB69009313467A6992
:10454000B968F86800F015F80EE0FB69002B0BD194
:104550004FF0500383F31188BFF36F8FBFF34F8F7A
:104560003B6100BF00BFFDE7FB6918462037BD4631
:1045700080BD80B584B000AFF860B9607A60FB7030
:10458000BB68002B03D1BB69BA691A6002E0BB6942
:104590007A681A60BB69FA68DA63BB69BA681A6438
:1045A0000121B869FFF712FFBB69FA7883F84C2044
:1045B00000BF1037BD4680BD80B58CB000AFF8603D
:1045C000B9607A603B600023FB62FB68BB62BB6A38
:1045D000002B0BD14FF0500383F31188BFF36F8F83
:1045E000BFF34F8F3B6200BF00BFFDE7BB68002BEE
:1045F00003D1BB6A1B6C002B01D1012300E0002317
:10460000002B0BD14FF0500383F31188BFF36F8F52
:10461000BFF34F8FFB6100BF00BFFDE73B68022B7C
:1046200003D1BB6ADB6B012B01D1012300E0002326
:10463000002B0BD14FF0500383F31188BFF36F8F22
:10464000BFF34F8FBB6100BF00BFFDE701F0D2FB9E
:10465000BB6A9A6BBB6ADB6B9A4202D33B68022B44
:1046600012D13A68B968B86A00F036F97862BB6A64
:104670005B6A002B04D0BB6A2433184600F000FFAD
:1046800001F0EAFB012362E07B68002B03D101F01B
:10469000E3FB00235BE0FB6A002B06D107F110036C
:1046A000184600F0C7FF0123FB6201F0D5FB00F0C4
:1046B00057FC01F09FFBBB6A93F844305BB2B3F147
:1046C000FF3F03D1BB6A002283F84420BB6A93F802
:1046D00045305BB2B3F1FF3F03D1BB6A002283F8E0
:1046E000452001F0B9FB3A1D07F1100311461846A9
:1046F00000F0B6FF0346002B23D1B86A00F0E4F9BE
:104700000346002B17D0BB6A10337A68114618464F
:1047100000F090FEB86A00F06FF900F02FFC03463D
:10472000002B93D10C4B4FF080521A60BFF34F8F88
:10473000BFF36F8F8AE7B86A00F05EF900F01EFCE5
:1047400084E7B86A00F058F900F018FC0023184616
:104750003037BD4680BD00BF04ED00E080B58CB0B1
:1047600000AFF860B9607A600023FB62FB68BB624F
:10477000BB6A002B0BD14FF0500383F31188BFF3BA
:104780006F8FBFF34F8F3B6200BF00BFFDE7BB6879
:10479000002B03D1BB6A1B6C002B01D1012300E06D
:1047A0000023002B0BD14FF0500383F31188BFF38C
:1047B0006F8FBFF34F8FFB6100BF00BFFDE701F0BC
:1047C00019FBBB6A9B6B7B627B6A002B14D0B968B8
:1047D000B86A00F0EBF87B6A5A1EBB6A9A63BB6A40
:1047E0001B69002B04D0BB6A1033184600F048FE4A
:1047F00001F032FB012369E07B68002B03D101F05B
:104800002BFB002362E0FB6A002B06D107F11403A7
:10481000184600F00FFF0123FB6201F01DFB00F0C2
:104820009FFB01F0E7FABB6A93F844305BB2B3F147
:10483000FF3F03D1BB6A002283F84420BB6A93F890
:1048400045305BB2B3F1FF3F03D1BB6A002283F86E
:10485000452001F001FB3A1D07F1140311461846EB
:1048600000F0FEFE0346002B23D1B86A00F016F9D3
:104870000346002B17D0BB6A24337A6811461846CA
:1048800000F0D8FDB86A00F0B7F800F077FB0346F7
:10489000002B94D10F4B4FF080521A60BFF34F8F13
:1048A000BFF36F8F8BE7B86A00F0A6F800F066FBE5
:1048B00085E7B86A00F0A0F800F060FBB86A00F085
:1048C000EDF80346002B3FF47AAF0023184630374B
:1048D000BD4680BD04ED00E080B586B000AFF86055
:1048E000B9607A6000237B61FB689B6B3B61FB686E
:1048F0001B6C002B0DD1FB681B68002B4DD1FB6896
:104900009B68184600F0CCFF7861FB6800229A6033
:1049100043E07B68002B19D1FB685868FB681B6C6F
:104920001A46B96802F0ABFCFB685A68FB681B6C5E
:104930001A44FB685A60FB685A68FB689B689A4295
:104940002BD3FB681A68FB685A6026E0FB68D868BE
:10495000FB681B6C1A46B96802F091FCFB68DA68C8
:10496000FB681B6C5B421A44FB68DA60FB68DA6820
:10497000FB681B689A4207D2FB689A68FB681B6C4D
:104980005B421A44FB68DA607B68022B05D13B6905
:10499000002B02D03B69013B3B613B695A1CFB6821
:1049A0009A637B6918461837BD4680BD80B582B0D2
:1049B00000AF786039607B681B6C002B18D07B6877
:1049C000DA687B681B6C1A447B68DA607B68DA689B
:1049D0007B689B689A4203D37B681A687B68DA60BD
:1049E0007B68D9687B681B6C1A46386802F047FC04
:1049F00000BF0837BD4680BD80B584B000AF786089
:104A000001F0F8F97B6893F84530FB7311E07B689F
:104A10005B6A002B12D07B682433184600F030FD0F
:104A20000346002B01D000F083FEFB7B013BDBB291
:104A3000FB7397F90F30002BE9DC00E000BF7B68C7
:104A4000FF2283F8452001F007FA01F0D3F97B68D3
:104A500093F84430BB7311E07B681B69002B12D0C4
:104A60007B681033184600F00BFD0346002B01D085
:104A700000F05EFEBB7B013BDBB2BB7397F90E30EF
:104A8000002BE9DC00E000BF7B68FF2283F84420B4
:104A900001F0E2F900BF1037BD4680BD80B584B09B
:104AA00000AF786001F0A6F97B689B6B002B02D108
:104AB0000123FB6001E00023FB6001F0CDF9FB68FE
:104AC00018461037BD4680BD80B584B000AF786011
:104AD00001F090F97B689A6B7B68DB6B9A4202D19C
:104AE0000123FB6001E00023FB6001F0B5F9FB68E6
:104AF00018461037BD4680BD80B58AB004AFF86057
:104B0000B9607A603B607B689B00184601F056FAFA
:104B100038613B69002B13D0582001F04FFA7861BF
:104B20007B69002B08D058220021786902F028FB0D
:104B30007B693A691A6305E0386901F071FB01E0AD
:104B400000237B617B69002B0DD0002303937B69DD
:104B500002937B6A01933B6A00933B687A68B96869
:104B6000F86800F028F87B6918461837BD4680BD04
:104B700080B588B002AFF860B9607A603B607B6A4C
:104B800001933B6A00933B687A68B968F868FFF75D
:104B9000B3FF38613B69002B05D0386900F09CF801
:104BA00001237B6102E04FF0FF337B617B69184694
:104BB0001837BD4680BD80B588B000AFF860B960D9
:104BC0007A603B603B6B186B7B689B001A46A521A3
:104BD00002F0D6FA3B6B1A6B7B6803F18043013B12
:104BE0009B001344BB61BB6923F00703BB61BB6936
:104BF00003F00703002B0BD04FF0500383F3118811
:104C0000BFF36F8FBFF34F8F7B6100BF00BFFDE726
:104C1000BB68002B1ED00023FB6112E0BA68FB6961
:104C2000134419783A6BFB69134434330A461A70FB
:104C3000BA68FB6913441B78002B06D0FB6901336B
:104C4000FB61FB69092BE9D900E000BF3B6B002247
:104C500083F83D20BB6A042B0BD94FF0500383F33C
:104C60001188BFF36F8FBFF34F8F3B6100BF00BF51
:104C7000FDE7BB6A042B01D90423BB623B6BBA6A14
:104C8000DA623B6BBA6A9A643B6B04331846FFF7EF
:104C90002DFB3B6B18331846FFF728FB3B6B3A6B39
:104CA0001A61BB6AC3F105023B6B9A613B6B3A6BBD
:104CB0005A623A68F968B86900F01CFF02463B6B1B
:104CC0001A60FB6A002B02D0FB6A3A6B1A6000BFC5
:104CD0002037BD4680BD000080B584B000AF78604D
:104CE00001F088F8394B1B680133384A1360384BA0
:104CF0001B68002B09D1364A7B681360334B1B6855
:104D0000012B10D100F032FD0DE0324B1B68002B5F
:104D100009D12F4B1B68DA6A7B68DB6A9A4202D89A
:104D20002B4A7B6813602C4B1B6801332A4A1360A3
:104D3000294B1A687B681A647B68DB6A01229A40F7
:104D4000264B1B681343254A13607B68DA6A2449A3
:104D500013469B0013449B000B4404331B68FB6009
:104D60007B68FA689A60FB689A687B68DA60FB681F
:104D70009B687A6804325A607B681A1DFB689A60E7
:104D80007B68DA6A13469B0013449B00144A1A445A
:104D90007B685A617B68DA6A114913469B001344A9
:104DA0009B000B441B687A68D26A591C0C48134656
:104DB0009B0013449B000344196001F04DF8054B20
:104DC0001B6800BF1037BD4680BD00BFC003002078
:104DD000E8020020CC030020DC030020C8030020F0
:104DE000EC02002080B584B000AF78600023FB6047
:104DF0007B68002B18D000F0B3F8134B1B68012B15
:104E00000BD04FF0500383F31188BFF36F8FBFF3C4
:104E10004F8FBB6000BF00BFFDE70021786800F046
:104E2000E7FD00F0ABF8F860FB68002B07D1074BFB
:104E30004FF080521A60BFF34F8FBFF36F8F00BFE8
:104E40001037BD4680BD00BFE803002004ED00E040
:104E500080B58AB002AF0123FB6100233B610023D0
:104E60007B6111E01C4A7B69134419783A1D7B6908
:104E700013440A461A703A1D7B6913441B78002BB1
:104E800006D07B6901337B617B69092BEADD00E099
:104E900000BF0023BB6115E0104B3B61BB699B0069
:104EA0000F4A1344391D01930023009300238222EB
:104EB0003869FFF75DFEF861FB69002B06D0BB691E
:104EC0000133BB61BB69002BE6DD00E000BFFB697D
:104ED00018462037BD4680BD808F0008495700081E
:104EE000E403002080B584B000AFFFF7B1FFF860A5
:104EF000FB68012B16D14FF0500383F31188BFF3E9
:104F00006F8FBFF34F8FBB6000BF114B4FF0FF326D
:104F10001A60104B01221A600F4B00221A6000F039
:104F200079FE0FE0FB68B3F1FF3F0BD14FF0500368
:104F300083F31188BFF36F8FBFF34F8F7B6000BF88
:104F400000BFFDE7054B1B6800BF1037BD4680BDA5
:104F5000E0030020CC030020C40300200C0000204C
:104F600080B400AF044B1B680133034A136000BFD9
:104F7000BD465DF8047B7047E803002080B588B02B
:104F800000AF0023FB6100237B6100F033FF0023AF
:104F90003B616E4B1B68002B0BD14FF0500383F32A
:104FA0001188BFF36F8FBFF34F8F3B6000BF00BF0F
:104FB000FDE7664B1B68013B644A1360634B1B684B
:104FC000002B40F0BC80624B1B68002B00F0B780C8
:104FD0008EE0604BDB68DB68FB61FB699B6AFB6012
:104FE000FB69DB69FA69126A9A60FB691B6AFA69F4
:104FF000D2695A60FB685A68FB6918339A4203D138
:10500000FB691A6AFB685A60FB6900229A62FB68B6
:105010001B685A1EFB681A60FB695B69BB60FB6911
:105020009B68FA69D2689A60FB69DB68FA699268E2
:105030005A60BB685A68FB6904339A4203D1FB6922
:10504000DA68BB685A60FB6900225A61BB681B685A
:105050005A1EBB681A60FB69DB6A01229A403E4B0C
:105060001B6813433C4A1360FB69DA6A3B491346E9
:105070009B0013449B000B4404331B687B60FB695B
:105080007A689A607B689A68FB69DA607B689B68DB
:10509000FA6904325A60FB691A1D7B689A60FB69E1
:1050A000DA6A13469B0013449B002C4A1A44FB699E
:1050B0005A61FB69DA6A294913469B0013449B0035
:1050C0000B441B68FA69D26A591C244813469B009A
:1050D00013449B0003441960FB69DA6A204B1B6888
:1050E000DB6A9A4204D91F4A3B69012142F8231026
:1050F000184B1B68002B7FF46CAFFB69002B01D0B1
:1051000000F0B2FB184B1B68BB61BB69002B12D0CF
:1051100000F03CF80346002B04D0124A3B69012101
:1051200042F82310BB69013BBB61BB69002BEFD187
:105130000D4B00221A600B4A3B6952F8233000F0F5
:105140008BFE7B6918462037BD4680BDE8030020F2
:10515000C003002080030020C8030020EC020020D0
:10516000E8020020D4030020D003002080B483B0E4
:1051700000AF054B1B687B607B6818460C37BD464B
:105180005DF8047B704700BFC403002080B58AB07F
:1051900000AF00237B626F4B1B68002B40F0D08078
:1051A0006D4B1B6801333B626B4A3B6A13603B6A81
:1051B000002B21D1694B1B681B68002B0BD04FF0D3
:1051C000500383F31188BFF36F8FBFF34F8F7B6062
:1051D00000BF00BFFDE7614B1B68FB61604B1B68B4
:1051E0005E4A13605E4AFB6913605E4B1B680133C5
:1051F0005C4A136000F038FB5B4B1B683A6A9A42CA
:10520000C0F0A380554B1B681B68002B04D1564B84
:105210004FF0FF321A6098E0504B1B68DB68DB6888
:10522000BB61BB695B687B613A6A7B699A4203D266
:105230004D4A7B69136088E0BB695B693B61BB6970
:105240009B68BA69D2689A60BB69DB68BA69926880
:105250005A603B695A68BB6904339A4203D1BB69FF
:10526000DA683B695A60BB6900225A613B691B6876
:105270005A1E3B691A60BB699B6A002B1ED0BB6932
:105280009B6AFB60BB69DB69BA69126A9A60BB6999
:105290001B6ABA69D2695A60FB685A68BB691833DD
:1052A0009A4203D1BB691A6AFB685A60BB69002243
:1052B0009A62FB681B685A1EFB681A60BB69DB6A4E
:1052C00001229A40294B1B681343284A1360BB698B
:1052D000DA6A274913469B0013449B000B440433AE
:1052E0001B68BB60BB69BA689A60BB689A68BB6997
:1052F000DA60BB689B68BA6904325A60BB691A1DE0
:10530000BB689A60BB69DA6A13469B0013449B0032
:10531000174A1A44BB695A61BB69DA6A14491346D1
:105320009B0013449B000B441B68BA69D26A591C4A
:105330000F4813469B0013449B000344196061E728
:105340000C4B1B6801330B4A13607B6A18462837E5
:10535000BD4680BDE8030020C40300207803002080
:105360007C030020D8030020E0030020C8030020B5
:10537000EC020020D003002080B487B000AF284B9F
:105380001B68002B03D0274B01221A6041E0254BFC
:1053900000221A60244B1B68FB60FB68B3FA83F39E
:1053A000FB72FB7AC3F11F037B6120497A691346C4
:1053B0009B0013449B000B441B68002B0BD14FF048
:1053C000500383F31188BFF36F8FBFF34F8F7B6060
:1053D00000BF00BFFDE77A6913469B0013449B00A2
:1053E000124A13443B613B695B685A683B695A60E7
:1053F0003B695A683B6908339A4203D13B69DA68D2
:105400003B695A603B695B68DB68094A1360084B7B
:105410001B6800BF1C37BD465DF8047B704700BFAA
:10542000E8030020D4030020C8030020EC02002081
:10543000E802002080B584B000AF786039607B68F6
:10544000002B0BD14FF0500383F31188BFF36F8F04
:10545000BFF34F8FFB6000BF00BFFDE7074B1B682A
:10546000183319467868FEF74EFF0121386800F0BE
:10547000BFFA00BF1037BD4680BD00BFE802002064
:1054800080B48BB000AF78607B68DB68DB683B6220
:105490003B6A002B0BD14FF0500383F31188BFF30D
:1054A0006F8FBFF34F8FFB6000BF00BFFDE73B6A0C
:1054B0009B6AFB613B6ADB693A6A126A9A603B6AE3
:1054C0001B6A3A6AD2695A60FB695A683B6A1833A8
:1054D0009A4203D13B6A1A6AFB695A603B6A00220E
:1054E0009A62FB691B685A1EFB691A604B4B1B686A
:1054F000002B60D13B6A5B697B613B6A9B683A6ABF
:10550000D2689A603B6ADB683A6A92685A607B6943
:105510005A683B6A04339A4203D13B6ADA687B6972
:105520005A603B6A00225A617B691B685A1E7B697C
:105530001A603B6ADB6A01229A40394B1B681343AD
:10554000374A13603B6ADA6A364913469B001344B4
:105550009B000B4404331B683B613B6A3A699A60C9
:105560003B699A683B6ADA603B699B683A6A043235
:105570005A603B6A1A1D3B699A603B6ADA6A1346B5
:105580009B0013449B00274A1A443B6A5A613B6ABA
:10559000DA6A244913469B0013449B000B441B68A2
:1055A0003A6AD26A591C1F4813469B0013449B0059
:1055B000034419601BE01C4B5B68BB613B6ABA6922
:1055C000DA61BB699A683B6A1A62BB699B683A6A8E
:1055D00018325A603B6A03F11802BB699A603B6A51
:1055E000114A9A62104B1B6801330F4A13603B6AE1
:1055F000DA6A0E4B1B68DB6A9A4205D901237B628B
:105600000B4B01221A6001E000237B627B6A184683
:105610002C37BD465DF8047B704700BFE8030020CF
:10562000C8030020EC02002080030020E8020020D4
:10563000D403002080B483B000AF7860064B1A68B2
:105640007B681A60054B1A687B685A6000BF0C378C
:10565000BD465DF8047B7047D8030020C4030020DA
:1056600080B588B000AF786039607B68002B0BD1C3
:105670004FF0500383F31188BFF36F8FBFF34F8F49
:105680003B6100BF00BFFDE73B68002B0BD14FF033
:10569000500383F31188BFF36F8FBFF34F8FFB600D
:1056A00000BF00BFFDE700F0A5FB1F4B1B68BB61FF
:1056B0007B685B68BA69D31A7B613B681B68B3F18E
:1056C000FF3F02D10023FB6126E07B681A68174B7D
:1056D0001B689A420AD07B685B68BA699A4205D314
:1056E0000123FB613B6800221A6015E03B681B68E0
:1056F0007A699A420BD23B681A687B69D21A3B6876
:105700001A607868FFF796FF0023FB6104E03B68AE
:1057100000221A600123FB6100F09EFBFB69184622
:105720002037BD4680BD00BFC4030020D803002041
:1057300080B400AF034B01221A6000BFBD465DF884
:10574000047B7047D403002080B582B000AF78603E
:1057500000F04CF8044B4FF080521A60BFF34F8FAB
:10576000BFF36F8F00BFF3E704ED00E080B582B0B8
:1057700000AF00237B600CE07A6813469B00134463
:105780009B00124A13441846FEF790FD7B680133D4
:105790007B607B68042BEFD90D48FEF787FD0D4831
:1057A000FEF784FD0C48FEF781FD0C48FEF77EFDF8
:1057B0000B48FEF77BFD0B4B054A1A600A4B054A66
:1057C0001A6000BF0837BD4680BD00BFEC02002054
:1057D0005003002064030020800300209403002075
:1057E000AC030020780300207C03002080B582B049
:1057F00000AF19E000F0FEFA104BDB68DB687B605D
:105800007B6804331846FEF7B7FD0D4B1B68013B60
:105810000B4A13600B4B1B68013B0A4A136000F0F4
:105820001BFB786800F010F8064B1B68002BE1D1D9
:1058300000BF00BF0837BD4680BD00BF94030020F5
:10584000C0030020A803002080B582B000AF7860BC
:105850007B681B6B184600F0E3FC786800F0E0FC06
:1058600000BF0837BD4680BD80B400AF0A4B1B683F
:105870001B68002B04D1094B4FF0FF321A6005E082
:10588000054B1B68DB681B68044A136000BFBD46FC
:105890005DF8047B704700BF78030020E003002020
:1058A00080B588B000AF78607B68BB610023FB6186
:1058B0007B68002B00F090804A4B1B68BA699A42C3
:1058C0000BD04FF0500383F31188BFF36F8FBFF3FA
:1058D0004F8F3B6100BF00BFFDE7BB69DB6C002B56
:1058E0000BD14FF0500383F31188BFF36F8FBFF3D9
:1058F0004F8FFB6000BF00BFFDE7BB69DB6C5A1E2A
:10590000BB69DA64BB69DA6ABB699B6C9A4263D093
:10591000BB69DB6C002B5FD1BB6904331846FEF713
:105920002BFD0346002B0AD1BB69DB6A012202FA78
:1059300003F3DA432C4B1B6813402B4A1360BB69FB
:105940009A6CBB69DA62BB69DB6AC3F10502BB69A9
:105950009A61BB69DB6A01229A40234B1B6813439F
:10596000214A1360BB69DA6A204913469B0013443D
:105970009B000B4404331B687B61BB697A699A60A6
:105980007B699A68BB69DA607B699B68BA69043293
:105990005A60BB691A1D7B699A60BB69DA6A134653
:1059A0009B0013449B00114A1A44BB695A61BB69AE
:1059B000DA6A0E4913469B0013449B000B441B6894
:1059C000BA69D26A591C094813469B0013449B00CC
:1059D000034419600123FB61FB6918462037BD466B
:1059E00080BD00BFE8020020C8030020EC020020B8
:1059F00080B588B000AF78603960374B1B68FB61B9
:105A0000364B1B68BB61364B1B687B61354B1B6893
:105A100004331846FEF7B0FC0346002B0BD1314B84
:105A20001B68DB6A012202FA03F3DA432E4B1B6880
:105A300013402D4A13607B68B3F1FF3F24D13B68CC
:105A4000002B21D0294B5B683B61264B1B683A69D0
:105A50009A60244B1B683A699268DA60214B1A6895
:105A60003B699B6804325A601E4B1B681A1D3B69D8
:105A70009A601C4B1B681D4A5A611C4B1B68013302
:105A80001A4A136000BF22E0FA697B681344FB6086
:105A9000144B1B68FA685A60FA68FB699A4207D28D
:105AA000104B1B68043319467869FEF72CFC0EE096
:105AB0000C4B1B6804331946B869FEF724FC0C4BE9
:105AC0001B68FA689A4202D2094AFB68136000BF59
:105AD0002037BD4680BD00BFC403002078030020EE
